:100000000C9472000C948B000C948B000C948B005D
:100010000C948B000C948B000C948B000C948B0034
:100020000C948B000C948B000C948B000C948B0024
:100030000C948B000C948B000C948B000C948B0014
:100040000C948B000C948B000C948B000C948B0004
:100050000C948B000C948B000C948B000C948B00F4
:100060000C948B000C948B000C948B000C948B00E4
:100070000C948B000C948B000C948B000C948B00D4
:100080000C948B000C948B000C948B000C948B00C4
:100090000C948B000C948B000C948B000C948B00B4
:1000A0000C948B000C948B000C948B000C948B00A4
:1000B0000C948B000C948B000C948B000C948B0094
:1000C0000C948B000C948B000C948B000C948B0084
:1000D0000C948B000C948B000C948B000C948B0074
:1000E0000C948B0011241FBECFEFD1E2DEBFCDBF39
:1000F00000E00CBF12E0A0E0B2E0E4EDF2E000E0CE
:100100000BBF02C007900D92AE3AB107D9F70E941B
:1001100099000C9468010C940000FC0181918111FC
:1001200001C008959091C00095FFFCCF8093C60058
:10013000F5CF8FEF87B984B18F6084B918B885B1D6
:100140008F6085B91092C50087E68093C40088E06F
:100150008093C10086E08093C20081E092E00E941B
:100160008D0083E192E00E948D0080E090E0EFE757
:1001700061E070E0E8B935B1AB01082E01C0440F71
:100180000A94EAF7242F2095232325B92FEF3DE287
:10019000A2E221503040A040E1F700C0000025B1AC
:1001A000242B25B9BFEFF3EC29E0B150F0402040FB
:1001B000E1F700C00000019684309105D9F63FEFC9
:1001C00045EA8EE0315040408040E1F700C0000039
:1001D0008CE392E00E948D0080E090E061E070E0AE
:1001E000562F082E01C0550F0A94EAF720E030E0A0
:1001F00058B9A5B1FB01022E01C0EE0F0A94EAF72F
:100200004E2F40954A2345B9AFEFB7E843E1A150DF
:10021000B0404040E1F700C0000045B14E2B45B969
:10022000AFEFB7EEE3E0A150B040E040E1F700C02F
:1002300000002F5F3F4F24303105D1F60196873003
:10024000910571F6FFEF25EA3EE0F1502040304085
:10025000E1F700C0000085E592E00E948D0020E0FB
:1002600030E050E861E070E058B945B1CB01022EB2
:1002700001C0880F0A94EAF7942F982B95B94FEF95
:10028000ADE2B2E24150A040B040E1F700C0000052
:1002900095B18095892385B9EFEFF3EC49E0E15002
:1002A000F0404040E1F700C000002F5F3F4F243096
:1002B0003105D1F68CE792E00E948D008FEF93ED2F
:1002C000A0E381509040A040E1F700C00000F6CFCD
:0402D000F894FFCFD0
:1002D4007F37736567206469616720737461727422
:1002E4000D0A00506861736520413A20616C6C20EE
:1002F4007365676D656E74732028636F6D6D6F6EC3
:100304002D636174686F6465290D0A005068617318
:100314006520423A207365676D656E747320612EA3
:100324002E670D0A00506861736520433A20747289
:100334007920636F6D6D6F6E2D616E6F646520281B
:10034400696E766572746564290D0A004469616793
:1003540020646F6E65202D206F6273657276652050
:100364007365676D656E74732F6469676974732050
:0E037400616E64207265706F72740D0A000075
:00000001FF
