:100000000C9472000C948B000C948B000C948B005D
:100010000C948B000C948B000C948B000C948B0034
:100020000C948B000C948B000C948B000C948B0024
:100030000C948B000C948B000C948B000C948B0014
:100040000C948B000C948B000C948B000C948B0004
:100050000C948B000C948B000C948B000C948B00F4
:100060000C948B000C948B000C948B000C948B00E4
:100070000C948B000C948B000C948B000C948B00D4
:100080000C948B000C948B000C948B000C948B00C4
:100090000C948B000C948B000C948B000C948B00B4
:1000A0000C948B000C948B000C948B000C948B00A4
:1000B0000C948B000C948B000C948B000C948B0094
:1000C0000C948B000C948B000C948B000C948B0084
:1000D0000C948B000C948B000C948B000C948B0074
:1000E0000C948B0011241FBECFEFD1E2DEBFCDBF39
:1000F00000E00CBF12E0A0E0B2E0E6E3F7E000E0D1
:100100000BBF02C007900D92A436B107D9F70E9429
:10011000AC020C9499030C940000E2E0F1E08081C1
:100120008860808380818061808387EC90E0019784
:10013000F1F700C00000A1E0B1E08C9188608C93E1
:100140008081877F808387EC90E00197F1F700C082
:10015000000080818F7E808387EC90E00197F1F72B
:1001600000C00000089598E0209102012F7E2093A6
:1001700002012091010180FF43C0277F20930101EC
:1001800020910201286020930201E7ECF0E0319712
:10019000F1F700C0000020910201206120930201CC
:1001A000E7ECF0E03197F1F700C0000086959A95F2
:1001B000D9F6809102018F7E809302018091010126
:1001C000877F8093010187EC90E00197F1F700C0F1
:1001D000000080910201806180930201E7ECF0E071
:1001E0003197F1F700C00000809102018F7E80936B
:1001F000020187EC90E00197F1F700C0000008953C
:1002000028602093010120910201277FBCCFE2E00A
:10021000F1E080818F7E8083A1E0B1E08C918860E5
:100220008C938081877F808387EC90E00197F1F742
:1002300000C0000080818061808387EC90E001979E
:10024000F1F700C000008C91877F8C9380818860DB
:10025000808387EC90E00197F1F700C000000895DB
:100260009093C5008093C40088E08093C10086E02D
:100270008093C20008959091C00095FFFCCF8093B9
:10028000C6000895CF93DF93EC018991811103C0DB
:10029000DF91CF9108950E943B01F7CF8FEF87B98F
:1002A00084B18F6084B918B885B18F6085B908951D
:1002B000EF92FF920F931F93CF93DF9300D00F9293
:1002C000CDB7DEB7382F292F8B0168EE73E00E947F
:1002D0001F03CB01EAE0F0E0BF010E941F03898306
:1002E000832F922F64E670E00E941F03CB01BF01B1
:1002F0000E941F038A83832F922FBF010E941F0336
:10030000282FCB01BF010E941F038B832C8320E089
:1003100030E061E070E02017310758F00F900F9047
:100320000F900F90DF91CF911F910F91FF90EF9061
:100330000895DE01119680E090E0ED91F0E0E0504C
:10034000FE4F408148B955B17B01082E01C0EE0C2B
:100350000A94EAF74E2D4095452345B9EFE3FFE1B6
:100360003197F1F700C0000045B14E2945B901961B
:100370008430910511F7285F3F4FCDCFEF92FF9268
:100380000F931F93CF93DF9300D00F92CDB7DEB7BB
:10039000382F292F68EE73E00E941F03CB01EAE09B
:1003A000F0E0BF010E941F038983832F922F64E630
:1003B00070E00E941F03CB01BF010E941F038A83CC
:1003C000832F922FBF010E941F03282FCB01BF0153
:1003D0000E941F038B832C830E948D0080E40E9467
:1003E000B3000E9407018FE193E00197F1F700C08D
:1003F00000000E948D0080EC0E94B3008E010F5F10
:100400001F4F7E0195E0E90EF11CD801ED918D01A1
:10041000F0E0E050FE4F80810E94B3000E151F05F2
:10042000A1F70E9407018FE193E00197F1F700C067
:1004300000000E948D008FE80E94B3000F900F9083
:100440000F900F90DF91CF911F910F91FF90EF9040
:100450000C9407010F931F93CF93DF93CDB7DEB7B3
:10046000A0970FB6F894DEBF0FBECDBF74982AE0F8
:100470002A95F1F700C0749A85E38A95F1F7000098
:10048000749880E090E0659B5AC0109280001092B2
:10049000810010928500109284008091810082601A
:1004A00080938100659B07C08091840090918500B6
:1004B00080369A4EB8F3109281000091840010911A
:1004C0008500B80180E090E02AE0AE014F5F5F4F09
:1004D0000E943E038AE092E00E944201CE01019612
:1004E0000E94420181E492E00E944201B8017695A7
:1004F000679580E090E02AE0AE014F5F5F4F0E9479
:100500003E0386E192E00E944201CE0101960E94E4
:10051000420181E492E00E944201C801CA9664E768
:1005200070E00E941F03CB01A0960FB6F894DEBFC7
:100530000FBECDBFDF91CF911F910F91089525E0A0
:100540002A95F1F700000196803325E7920709F01C
:100550009ACF80E090E0E8CFCDB7DEB7C055D109A3
:100560000FB6F894DEBF0FBECDBF6C9A6D9874982D
:1005700087E690E00E94300184E292E00E9442010E
:100580008DB14AE0BE016F5F7F4F90E00E94330360
:1005900084E492E00E944201CE0101960E94420151
:1005A00081E492E00E9442018EB14AE0BE016F5F99
:1005B0007F4F90E00E9433038BE492E00E9442015F
:1005C000CE0101960E94420181E492E00E94420124
:1005D000809101018061809301018091020180611D
:1005E0008093020180910101877F809301018091B6
:1005F00002018860809302010E942A028C014AE075
:10060000BE016F5B7F4F0E94330383E592E00E943F
:100610004201CE018F5B9F4F0E9442018EE592E026
:100620000E944201C8010E94BE012FEF85EA9EE0B0
:10063000215080409040E1F700C00000DDCFAA1BB0
:10064000BB1B51E107C0AA1FBB1FA617B70710F0BD
:10065000A61BB70B881F991F5A95A9F780959095EF
:10066000BC01CD010895BB274A3031F4992322F40F
:10067000BDE2909581959F4F0C947003BB272A3063
:1006800051F4992342F4BDE290958095709561955F
:100690007F4F8F4F9F4F0C944E03BB27FA01A62F1D
:1006A0006217710581059105330B30FB66F0AA27AF
:1006B000660F771F881F991FAA1FA21710F0A21B91
:1006C00063953850A9F7A05DAA3308F0A95DA193FE
:1006D00036F7B111B1931082CA010C948903BB277C
:1006E000FB015527AA27880F991FAA1FA41710F0EE
:1006F000A41B83955051B9F7A05DAA3308F0A95DFA
:10070000A193009779F7B111B1931192CB010C9499
:100710008903DC01FC01672F71917723E1F73297A0
:1007200004C07C916D9370836291AE17BF07C8F3CC
:060730000895F894FFCFCC
:100736003F065B4F666D7D077F6F52617720746958
:10074600636B733A200055732028617070726F785E
:10075600293A20002D2D2D2048432D535230342088
:100766006669726D7761726520626F6F74202D2DD8
:100776002D0D0A00444452453A2000504F5254452C
:100786003A200044697374616E63653A2000206301
:040796006D0D0A00DB
:00000001FF
