:100000000C9472000C948B000C948B000C948B005D
:100010000C948B000C948B000C948B000C948B0034
:100020000C948B000C948B000C948B000C948B0024
:100030000C948B000C948B000C948B000C948B0014
:100040000C948B000C948B000C948B000C948B0004
:100050000C948B000C948B000C948B000C948B00F4
:100060000C948B000C948B000C948B000C948B00E4
:100070000C948B000C948B000C948B000C948B00D4
:100080000C948B000C948B000C948B000C948B00C4
:100090000C948B000C948B000C948B000C948B00B4
:1000A0000C948B000C948B000C948B000C948B00A4
:1000B0000C948B000C948B000C948B000C948B0094
:1000C0000C948B000C948B000C948B000C948B0084
:1000D0000C948B000C948B000C948B000C948B0074
:1000E0000C948B0011241FBECFEFD1E2DEBFCDBF39
:1000F00000E00CBF12E0A0E0B2E0ECE4F5E000E0CC
:100100000BBF02C007900D92A231B107D9F70E9430
:1001100019010C94A4020C9400009093C5008093E4
:10012000C40088E08093C10086E08093C2000895F7
:100130009091C00095FFFCCF8093C6000895CF93A7
:10014000DF93EC018991811103C0DF91CF91089574
:100150000E949800F7CF4F925F926F927F928F929A
:100160009F92AF92BF92CF92DF92EF92FF92CF9386
:10017000DF9374982AE02A95F1F700C0749A85E31A
:100180008A95F1F70000749880E090E0659B48C084
:100190001092800082E0809381001092850010927E
:1001A000840080E090E0659B05C0019681362AEED0
:1001B0009207C9F7109281006091840070918500C8
:1001C0007695679580E090E00E94740126E933E41B
:1001D0004BE05DE32B013C01C301B2010E94DA0157
:1001E00020E030E040E05FE34B015C01C501B40179
:1001F0000E94DA016B017C01C701B6010E94450132
:10020000CB01DF91CF91FF90EF90DF90CF90BF9027
:10021000AF909F908F907F906F905F904F900895D8
:10022000019681362AEE920709F0B0CF80E090E087
:10023000E8CFCDB7DEB760970FB6F894DEBF0FBE3C
:10024000CDBF6C9A6D9887E690E00E948D000E9469
:10025000AB004AE0BE016F5F7F4F0E946F0280E0FB
:1002600092E00E949F00CE0101960E949F008BE0C9
:1002700092E00E949F002FEF89E698E12150804094
:100280009040E1F700C00000E2CF0E94B90188F081
:100290009F5798F0B92F9927B751B0F0E1F0660F4A
:1002A000771F881F991F1AF0BA95C9F714C0B1308B
:1002B00091F00E94D301B1E008950C94D301672F0F
:1002C000782F8827B85F39F0B93FCCF386957795BA
:1002D0006795B395D9F73EF49095809570956195A3
:1002E0007F4F8F4F9F4F0895E89409C097FB3EF4CE
:1002F00090958095709561957F4F8F4F9F4F992373
:10030000A9F0F92F96E9BB279395F69587957795F0
:100310006795B795F111F8CFFAF4BB0F11F460FFB0
:100320001BC06F5F7F4F8F4F9F4F16C0882311F008
:1003300096E911C0772321F09EE8872F762F05C01C
:10034000662371F096E8862F70E060E02AF09A95B7
:10035000660F771F881FDAF7880F9695879597F9AC
:10036000089557FD9058440F551F59F05F3F71F0A5
:100370004795880F97FB991F61F09F3F79F087950C
:100380000895121613061406551FF2CF4695F1DF95
:1003900008C0161617061806991FF1CF8695710525
:1003A000610508940895E894BB2766277727CB0159
:1003B00097F908950E94ED010C945E020E9450028C
:1003C00038F00E94570220F0952311F00C94470258
:1003D0000C944D0211240C94D4010E94B10170F3CD
:1003E000959FC1F3950F50E0551F629FF001729FDA
:1003F000BB27F00DB11D639FAA27F00DB11DAA1FE9
:10040000649F6627B00DA11D661F829F2227B00D35
:10041000A11D621F739FB00DA11D621F839FA00DC0
:10042000611D221F749F3327A00D611D231F849F10
:10043000600D211D822F762F6A2F11249F57504067
:100440009AF0F1F088234AF0EE0FFF1FBB1F661FE2
:10045000771F881F91505040A9F79E3F510580F0AB
:100460000C9447020C94D4015F3FE4F3983ED4F31C
:10047000869577956795B795F795E7959F5FC1F74F
:10048000FE2B880F911D9695879597F9089597F9FA
:100490009F6780E870E060E008959FEF80EC08952A
:1004A00000240A9416161706180609060895002453
:1004B0000A9412161306140605060895092E0394CD
:1004C000000C11F4882352F0BB0F40F4BF2B11F441
:1004D00060FF04C06F5F7F4F8F4F9F4F0895BB2712
:1004E0004A3031F4992322F4BDE2909581959F4FD3
:1004F0000C947B02BB27FB015527AA27880F991F65
:10050000AA1FA41710F0A41B83955051B9F7A05D42
:10051000AA3308F0A95DA193009779F7B111B193BF
:100520001192CB010C949402DC01FC01672F7191B4
:100530007723E1F7329704C07C916D9370836291C9
:0C054000AE17BF07C8F30895F894FFCF72
:10054C0044697374616E63653A200020636D0D0A13
:02055C0000009D
:00000001FF
