:100000000C9434000C9449000C9449000C94490061
:100010000C9449000C9449000C9449000C9449003C
:100020000C9449000C9449000C9449000C9449002C
:100030000C9449000C9449000C9449000C9449001C
:100040000C9449000C9449000C9449000C9449000C
:100050000C9449000C9449000C9449000C944900FC
:100060000C9449000C94490011241FBECFEFD8E036
:10007000DEBFCDBF11E0A0E0B1E0E2E9F4E002C0F4
:1000800005900D92A231B107D9F70E94B7000C94E8
:1000900047020C9400009093C5008093C40088E050
:1000A0008093C10086E08093C20008959091C000C3
:1000B00095FFFCCF8093C6000895CF93DF93EC01AA
:1000C0008991811103C0DF91CF9108950E9456005C
:1000D000F7CF529A539808955A988AE08A95F1F783
:1000E00000C05A9A85E38A95F1F700005A9808955E
:1000F0008F929F92AF92BF92CF92DF92EF92FF9238
:10010000CF93DF930E946C004B9BFECF60E070E0CA
:10011000CB014B9B0EC025E02A95F1F700006F5FE5
:100120007F4F8F4F9F4F613325E772078105910500
:1001300081F70E94840120E030E048E652E44B0160
:100140005C01C501B4010E94E3006B017C01C701A1
:10015000B6010E945501CB01DF91CF91FF90EF9046
:10016000DF90CF90BF90AF909F908F900895CDB7C4
:10017000DEB72A970FB6F894DEBF0FBECDBF87E675
:1001800090E00E944B000E9469000E9478004AE0C3
:10019000BE016F5F7F4F0E94120280E091E00E94DB
:1001A0005D00CE0101960E945D008BE091E00E940F
:1001B0005D002FEF89E698E1215080409040E1F703
:1001C00000C00000E2CF0E94F7000C94D8010E940A
:1001D000D10158F00E94CA0140F029F45F3F29F094
:1001E0000C94C10151110C940C020C94C7010E9493
:1001F000E90168F39923B1F3552391F3951B550B4E
:10020000BB27AA2762177307840738F09F5F5F4FE9
:10021000220F331F441FAA1FA9F335D00E2E3AF028
:10022000E0E832D091505040E695001CCAF72BD040
:10023000FE2F29D0660F771F881FBB1F2617370791
:100240004807AB07B0E809F0BB0B802DBF01FF27C3
:1002500093585F4F3AF09E3F510578F00C94C101DE
:100260000C940C025F3FE4F3983ED4F386957795A7
:100270006795B795F7959F5FC9F7880F911D96957C
:10028000879597F90895E1E0660F771F881FBB1FD8
:10029000621773078407BA0720F0621B730B840B85
:1002A000BA0BEE1F88F7E09508950E94F10188F0DF
:1002B0009F5798F0B92F9927B751B0F0E1F0660F2A
:1002C000771F881F991F1AF0BA95C9F714C0B1306B
:1002D00091F00E940B02B1E008950C940B02672F7D
:1002E000782F8827B85F39F0B93FCCF3869577959A
:1002F0006795B395D9F73EF4909580957095619583
:100300007F4F8F4F9F4F0895E89409C097FB3EF4AD
:1003100090958095709561957F4F8F4F9F4F992352
:10032000A9F0F92F96E9BB279395F69587957795D0
:100330006795B795F111F8CFFAF4BB0F11F460FF90
:100340001BC06F5F7F4F8F4F9F4F16C0882311F0E8
:1003500096E911C0772321F09EE8872F762F05C0FC
:10036000662371F096E8862F70E060E02AF09A9597
:10037000660F771F881FDAF7880F9695879597F98C
:10038000089597F99F6780E870E060E008959FEF17
:1003900080EC089500240A9416161706180609061C
:1003A000089500240A9412161306140605060895EB
:1003B000092E0394000C11F4882352F0BB0F40F473
:1003C000BF2B11F460FF04C06F5F7F4F8F4F9F4FB3
:1003D000089557FD9058440F551F59F05F3F71F035
:1003E0004795880F97FB991F61F09F3F79F087959C
:1003F0000895121613061406551FF2CF4695F1DF25
:1004000008C0161617061806991FF1CF86957105B4
:10041000610508940895E894BB2766277727CB01E8
:1004200097F90895BB274A3031F4992322F4BDE2AD
:10043000909581959F4F0C941E02BB27FB01552779
:10044000AA27880F991FAA1FA41710F0A41B839531
:100450005051B9F7A05DAA3308F0A95DA1930097A8
:1004600079F7B111B1931192CB010C943702DC01F1
:10047000FC01672F71917723E1F7329704C07C91DB
:100480006D9370836291AE17BF07C8F30895F89417
:02049000FFCF9C
:1004920044697374616E63653A200020636D0D0ACE
:0204A200000058
:00000001FF
